:1020000090310E28FF3FFF3F7E1490312E00161AAC
:102010000C1E0C28903184207E1009002000903185
:1020200011287E102000142831209031FA30F00061
:10203000F1011F2090314030200096061628013013
:10204000F0020030F13B700F2828710A03190800D4
:102050000B30F2006230890B2B28F20B2B28003258
:102060001F2836209031462090313F2860303100C3
:102070008D008F01910106309300920108002E001F
:102080000C100B140030F001F101832840302000C7
:1020900096009701980199019A01BF309100FF3095
:1020A00092009300940007309500BF303E00B800C6
:1020B000FF30C300CE00D9000730E400B901C401ED
:1020C000CF01DA01E501BA01C501D001DB01E6016A
:1020D000FF30BB00C600D100DC000730E700FF3056
:1020E000BC00C700D200DD000730E800BD01BE0122
:1020F000BF01C801C901CA01D301D401D501E90159
:10210000EA01EB01080008000800FF3FFF3FFF3F26
:10211000FF3FFF3FFF3FFF3FFF3FFF3FFF3FFF3FCF
:10212000FF3FFF3FFF3FFF3FFF3FFF3FFF3FFF3FBF
:10213000FF3FFF3FFF3FFF3FFF3FFF3FFF3FFF3FAF
:10214000FF3FFF3FFF3FFF3FFF3FFF3FFF3FFF3F9F
:103FF000FF3FFF3FFF3FFF3FFF3FFF3F6E3F003F61
:020000040001F9
:0A000E00EC3FFF3F9F3FFF3FFF3F25
:00000001FF
